:100000008A11ED2F00308A000408840A8207003428
:100010002D342D342D342D342D342D342D342D34D8
:100020002D342D342D342D342D342D342D342D34C8
:100030002D342D342D342D34003449346E34643451
:1000400075346334743461346E34633465343A34F3
:100050002034333433342E34313430346D34483436
:10006000003449346E346434753463347434613428
:100070006E346334653420346D34653474346534DF
:100080007234003447346F347234643461346E3403
:1000900020344D3469346C346F34743469346334CF
:0200A00000342A
:100D1A00003440341434543483120313861400000C
:100D2A008312031386102130F000F00B9A2E08006C
:100D3A00A82E760884008A1102208A118A11B32605
:100D4A008A110130F607760884008A1102208A1176
:100D5A00003A031DB12EB22E9E2E0800F500831212
:100D6A00031306177508F40004300310F40CFF3E51
:100D7A00031DBA2E74088A114B278A1175080F3978
:100D8A008A114B278A111030F400F40BCA2E000086
:100D9A000800FC00831203132308FB002208FA0050
:100DAA002108F9002008F80004307C02031CDE2E1A
:100DBA00DF2EE12E0330FC007C08783E84007708A1
:100DCA00000780388A11EB268A110800F600831280
:100DDA00031306137608F40004300310F40CFF3EE4
:100DEA00031DF22E74088A114B278A1176080F39CF
:100DFA008A114B278A1176030319042F052F0B2F0B
:100E0A0002307606031D0A2F0B2F152F0330F5002B
:100E1A009730F400F40B0F2FF50B0F2F142F1A2F06
:100E2A001030F400F40B172F000008008A118D27E8
:100E3A008A110230F70000308A11CE268A112A3030
:100E4A00F6008A119D268A11F70101308A11CE26F1
:100E5A008A111630F6008A119D268A11F70102308E
:100E6A008A11CE268A110130F6008A119D268A112E
:100E7A000330F70003308A11CE268A113B30F60080
:100E8A008A119D268A11482F8A110028F3007308B7
:100E9A000139F100F10DF10D8312031306087106F1
:100EAA00FB39710686007308F1000310710C0139D1
:100EBA00F200F20DF20DF20D06087206F73972060B
:100ECA0086007308F10002300310F10CFF3E031D87
:100EDA00692F71080139F200F20E06087206EF391D
:100EEA00720686007308F10003300310F10CFF3E0E
:100EFA00031D7A2F71080139F200F20EF20D06086D
:100F0A007206DF39720686008A1191268A11080054
:100F1A00831603130F088F3960388F000F1083165A
:100F2A000317880189018312031394129801831607
:100F3A000313980186018312031386011A30F800FD
:100F4A00F830F700F70BA72FF80BA72F0000033094
:100F5A008A114B278A110730F8007D30F700F70B0A
:100F6A00B42FF80BB42F03308A114B278A11313072
:100F7A00F700F70BBE2FC12F03308A114B278A11B6
:100F8A003130F700F70BC72FCA2F02308A114B27CF
:100F9A008A113130F700F70BD02FD32F28308A115E
:100FAA00EB268A110C308A11EB268A1101308A113C
:100FBA00EB268A1106308A11EB268A110330F800D3
:100FCA009730F700F70BE72FF80BE72FEC2F080005
:100FDA008A118D268A11A0008A118E268A11A100F3
:100FEA008A118F268A11A2008A1190268A11A300DB
:060FFA0083018A111B2F88
:04400E00E420FF3F6C
:00000001FF
